:020000040800F2
:10000000000002209509000831090008370900089E
:100010003D090008430900084909000800000000E4
:10002000000000000000000000000000012C00089B
:100030004F09000800000000512E0008B92E0008EA
:10004000E5090008E5090008E5090008E5090008D8
:10005000E5090008E5090008E5090008E5090008C8
:10006000E5090008E5090008E5090008E5090008B8
:10007000E5090008E5090008E5090008E5090008A8
:10008000E5090008E5090008E5090008E509000898
:10009000E5090008E5090008E5090008E509000888
:1000A000E50900085D090008E5090008E509000800
:1000B000E5090008E5090008E5090008E509000868
:1000C000E5090008E5090008E5090008E509000858
:1000D000E5090008E5090008E5090008E509000848
:1000E000E5090008E5090008E5090008E509000838
:1000F000E5090008E5090008E5090008E509000828
:10010000E5090008E5090008E5090008E509000817
:10011000E5090008E5090008E5090008E509000807
:10012000E5090008E5090008E5090008E5090008F7
:10013000E50900080000000000000000E5090008D3
:10014000E5090008E5090008E5090008E5090008D7
:10015000E5090008E5090008E5090008E5090008C7
:10016000E5090008E5090008E5090008E5090008B7
:10017000E5090008E5090008000000000000000093
:08018000E5090008E50900088B
:1001900010B5054C237833B9044B13B10448AFF3C1
:1001A00000800123237010BD10000020000000001B
:1001B0008433000808B5034B1BB103490348AFF370
:1001C000008008BD000000001400002084330008F7
:1001D00053B94AB9002908BF00281CBF4FF0FF31AE
:1001E0004FF0FF3000F070B9ADF1080C6DE904CEAE
:1001F00000F006F8DDF804E0DDE9022304B0704702
:100200002DE9F047089E0D4604460F46002B4AD1C3
:100210008A42944665D9B2FA82F343B102FA03FCEA
:10022000C3F120029F4020FA02F217439C404FEA9C
:100230001C4E1FFA8CF5B7FBFEF1220C0EFB11775A
:1002400042EA074201FB05F090420AD91CEB020288
:1002500001F1FF3780F01C81904240F21981023990
:100260006244121AA4B2B2FBFEF00EFB102244EA62
:10027000024400FB05F5A5420AD91CEB040400F179
:10028000FF3280F00781A54240F2048164440238C5
:1002900040EA0140641B00211EB1DC400023C6E996
:1002A0000043BDE8F0878B4208D9002E00F0ED80B6
:1002B0000021C6E900050846BDE8F087B3FA83F1DE
:1002C000002949D1AB4202D3824200F2F880841A5D
:1002D00065EB030201201746002EE2D0C6E9004775
:1002E000DFE702B9FFDEB2FA82F3002B40F0908024
:1002F0008A1A4FEA1C471FFA8CFE0121B2FBF7F560
:1003000007FB1520220C42EA00420EFB05F090424A
:1003100008D91CEB020205F1FF3802D2904200F22C
:10032000CB804546121AA4B2B2FBF7F007FB1022AD
:1003300044EA02440EFB00FEA64508D91CEB040467
:1003400000F1FF3202D2A64500F2BB801046A4EBBA
:100350000E0440EA05409FE7C1F120078B4022FAD6
:1003600007FC4CEA030C05FA01F420FA07F3FD4000
:100370004FEA1C492343B5FBF9F81FFA8CFE09FB31
:1003800018551C0C44EA054408FB0EF5A54202FA78
:1003900001F200FA01F00BD91CEB040408F1FF3A5A
:1003A00080F08880A54240F28580A8F1020864446C
:1003B000641B9DB2B4FBF9F309FB134445EA044402
:1003C00003FB0EFEA64508D91CEB040403F1FF3520
:1003D0006CD2A6456AD9023B644443EA0843A3FBB6
:1003E0000295A4EB0E04AC42C846AE4656D353D099
:1003F00056B1B0EB080264EB0E0404FA07F7CA40EA
:10040000CC401743C6E9007418460021BDE8F087C8
:10041000C3F1200102FA03FC20FA01F225FA01F1EE
:100420009D402A434FEA1C471FFA8CFEB1FBF7F0B0
:1004300007FB1015110C41EA054100FB0EF58D423A
:1004400004FA03F408D91CEB010100F1FF382FD2A4
:100450008D422DD902386144491B92B2B1FBF7F5A8
:1004600007FB151142EA014205FB0EF1914208D942
:100470001CEB020205F1FF3816D2914214D9023D5D
:100480006244521A45EA004138E73146304608E7EF
:100490003946E6E61046FBE64845A9D2B9EB020824
:1004A00065EB0C0E013BA3E74546EAE72B4694E7D4
:1004B0004046D1E7D0467BE7023D624432E708463A
:1004C0000AE76444023842E7704700BF80B485B051
:1004D00000AFF860B9607A60FB68074A1A60BB68D1
:1004E000064A1A607B6880221A6000BF1437BD4636
:1004F0005DF8047B704700BF2C00002080000020C6
:10050000B0B59CB000AF00F06FFA00F05FF800F0FB
:10051000C7F8264B07F154041D460FCD0FC495E8CC
:10052000070084E8070007F154030021184601F092
:10053000D2FC03461E4A13601E4B07F138041D46C9
:100540000FCD0FC495E8070084E8070007F13803D2
:100550000021184601F0BFFC0346174A1360174BF1
:1005600007F11C041D460FCD0FC495E8070084E871
:10057000070007F11C030021184601F0ACFC0346FC
:100580000F4A13600F4B3C461D460FCD0FC495E834
:10059000070084E807003B460021184601F09BFC59
:1005A0000346094A136001F08FFCFEE7A4330008FC
:1005B00080020020C833000884020020EC330008C9
:1005C00088020020103400088C02002080B594B00E
:1005D00000AF07F1200330220021184602F0A6FEEA
:1005E00007F10C0300221A605A609A60DA601A61FF
:1005F0000023BB60284B1B6C274A43F080531364D5
:10060000254B1B6C03F08053BB60BB6800237B60F1
:10061000224B1B68214A43F4804313601F4B1B6825
:1006200003F480437B607B6802233B620123FB620F
:1006300010233B630223BB630023FB6308233B645B
:10064000A8237B640223BB640423FB6407F120031B
:10065000184600F0BDFC0346002B01D000F0C2F8A4
:100660000F23FB6002233B6100237B614FF4A05307
:10067000BB614FF48053FB6107F10C030521184661
:1006800000F01EFF0346002B01D000F0ABF800BFC6
:100690005037BD4680BD00BF0038024000700040AA
:1006A00080B588B000AF07F10C0300221A605A60D1
:1006B0009A60DA601A610023BB601F4B1B6B1E4AF5
:1006C00043F0800313631C4B1B6B03F08003BB6080
:1006D000BB6800237B60184B1B6B174A43F0010378
:1006E0001363154B1B6B03F001037B607B680023D6
:1006F0003B60114B1B6B104A43F0020313630E4B1C
:100700001B6B03F002033B603B6800220F210B4888
:1007100000F02AFC0F23FB6001233B6100237B6177
:100720000023BB6107F10C031946044800F080FA6E
:1007300000BF2037BD4680BD0038024000040240A3
:1007400080B582B000AF78600221044800F025FC3B
:100750004FF47A7001F00BFCF6E700BF0004024092
:1007600080B582B000AF78600121044800F015FC2C
:100770004FF4FA7001F0FBFBF6E700BF0004024003
:1007800080B582B000AF78600421044800F005FC19
:100790004FF4FA6001F0EBFBF6E700BF0004024003
:1007A00080B582B000AF78600821044800F0F5FB06
:1007B00040F6B83001F0DBFBF6E700BF0004024072
:1007C00080B582B000AF78607B681B68044A9342B2
:1007D00001D100F02BF900BF0837BD4680BD00BF36
:1007E0000000014080B400AF72B600BFFEE7000019
:1007F00080B582B000AF00237B60124B5B6C114A66
:1008000043F4804353640F4B5B6C03F480437B6081
:100810007B6800233B600B4B1B6C0A4A43F0805300
:100820001364084B1B6C03F080533B603B68002251
:100830000F216FF0010000F0D1F900BF0837BD466D
:1008400080BD00BF0038024080B58CB000AF78603A
:100850000023BB6200237B620023BB602F4B5B6CD9
:100860002E4A43F0010353642C4B5B6C03F00103ED
:10087000BB60BB6807F10C0207F110031146184674
:1008800001F02AF801F014F803465B00BB62BB6A72
:10089000234AA2FB03239B0C013B7B62214B224A90
:1008A0001A60204B40F2E732DA601E4A7B6A5360DE
:1008B0001C4B00221A611B4B00229A60194B00222C
:1008C0009A61184801F03AF8034687F82F3097F8F4
:1008D0002F30002B1BD1134801F08AF8034687F80C
:1008E0002F3097F82F30002B11D1192000F092F9FA
:1008F0007B680F2B08D800227968192000F06EF968
:100900000A4A7B68136002E0012387F82F3097F8CA
:100910002F3018463037BD4680BD00BF003802403A
:1009200083DE1B43900200200000014004000020F1
:1009300080B400AFFEE780B400AFFEE780B400AF44
:10094000FEE780B400AFFEE780B400AFFEE780B4FE
:1009500000AF00BFBD465DF8047B704780B500AFB7
:10096000024801F0B5F800BF80BD00BF9002002032
:1009700080B400AF064BD3F88830054A43F47003C7
:10098000C2F8883000BFBD465DF8047B704700BFE9
:1009900000ED00E0DFF834D00D480E490E4A002388
:1009A00002E0D458C4500433C4188C42F9D30B4A23
:1009B0000B4C002301E013600432A242FBD3FFF78B
:1009C000D7FF02F0BBFCFFF79BFD70470000022041
:1009D00000000020100000205C34000810000020FF
:1009E00030400020FEE7000080B500AF0E4B1B68D2
:1009F0000D4A43F4007313600B4B1B680A4A43F41F
:100A000080631360084B1B68074A43F480731360CC
:100A1000032000F0D8F80F20FFF716FFFFF7E8FEDD
:100A20000023184680BD00BF003C024080B400AFE8
:100A3000064B1B781A46064B1B681344044A136086
:100A400000BFBD465DF8047B704700BF0800002072
:100A5000D802002080B400AF034B1B681846BD4687
:100A60005DF8047B704700BFD802002080B485B0D9
:100A700000AF78607B6803F00703FB600C4BDB681A
:100A8000BB60BA684FF6FF031340BB60FB681A02F5
:100A9000BB68134343F0BF6343F40033BB60044AB5
:100AA000BB68D36000BF1437BD465DF8047B704758
:100AB00000ED00E080B400AF044BDB681B0A03F0DC
:100AC00007031846BD465DF8047B704700ED00E063
:100AD00080B483B000AF0346FB7197F90730002B59
:100AE0000BDBFB7903F01F02074997F907305B091D
:100AF000012000FA02F241F8232000BF0C37BD4666
:100B00005DF8047B704700BF00E100E080B483B073
:100B100000AF03463960FB7197F90730002B0ADB01
:100B20003B68DAB20C4997F907301201D2B20B4494
:100B300083F800230AE03B68DAB20849FB7903F046
:100B40000F03043B1201D2B20B441A7600BF0C37DC
:100B5000BD465DF8047B704700E100E000ED00E079
:100B600080B489B000AFF860B9607A60FB6803F0C8
:100B70000703FB61FB69C3F10703042B28BF0423B0
:100B8000BB61FB690433062B02D9FB69033B00E020
:100B900000237B614FF0FF32BB6902FA03F3DA43B3
:100BA000BB681A407B699A404FF0FF317B6901FABC
:100BB00003F3D9437B680B40134318462437BD46E3
:100BC0005DF8047B704780B582B000AF78607868CC
:100BD000FFF74CFF00BF0837BD4680BD80B586B02B
:100BE00000AF0346B9607A60FB7300237B61FFF7B7
:100BF00061FF78617A68B9687869FFF7B1FF0246EA
:100C000097F90F3011461846FFF780FF00BF1837DD
:100C1000BD4680BD80B582B000AF0346FB7197F939
:100C200007301846FFF754FF00BF0837BD4680BDA8
:100C300080B489B000AF7860396000237B61002305
:100C40003B610023BB610023FB616BE10122FB6977
:100C500002FA03F37B613B681B687A6913403B61CE
:100C60003A697B699A4240F05A813B685B6803F0BD
:100C70000303012B05D03B685B6803F00303022BE1
:100C800030D17B689B68BB61FB695B00032202FA81
:100C900003F3DB43BA691340BB613B68DA68FB6965
:100CA0005B0002FA03F3BA691343BB617B68BA695C
:100CB0009A607B685B68BB610122FB6902FA03F3FF
:100CC000DB43BA691340BB613B685B681B0903F0F7
:100CD0000102FB6902FA03F3BA691343BB617B6843
:100CE000BA695A603B685B6803F00303032B17D0B3
:100CF0007B68DB68BB61FB695B00032202FA03F3DC
:100D0000DB43BA691340BB613B689A68FB695B00CF
:100D100002FA03F3BA691343BB617B68BA69DA600C
:100D20003B685B6803F00303022B23D1FB69DA08FD
:100D30007B68083253F82230BB61FB6903F007037C
:100D40009B000F2202FA03F3DB43BA691340BB6135
:100D50003B681A69FB6903F007039B0002FA03F37F
:100D6000BA691343BB61FB69DA087B680832B96969
:100D700043F822107B681B68BB61FB695B000322A0
:100D800002FA03F3DB43BA691340BB613B685B685B
:100D900003F00302FB695B0002FA03F3BA69134331
:100DA000BB617B68BA691A603B685B6803F44033D7
:100DB000002B00F0B4800023FB60604B5B6C5F4A4B
:100DC00043F4804353645D4B5B6C03F48043FB60EE
:100DD000FB685B4AFB699B08023352F82330BB6116
:100DE000FB6903F003039B000F2202FA03F3DB43CA
:100DF000BA691340BB617B68524A93422BD07B682F
:100E0000514A934225D07B68504A93421FD07B6859
:100E10004F4A934219D07B684E4A934213D07B6865
:100E20004D4A93420DD07B684C4A934207D07B6871
:100E30004B4A934201D107230EE008230CE006231E
:100E40000AE0052308E0042306E0032304E002236C
:100E500002E0012300E00023FA6902F0030292009D
:100E60009340BA691343BB613549FB699B08023360
:100E7000BA6941F823203B4B9B68BB613B69DB436C
:100E8000BA691340BB613B685B6803F48013002BB5
:100E900003D0BA693B691343BB61324ABB699360B3
:100EA000304BDB68BB613B69DB43BA691340BB6114
:100EB0003B685B6803F40013002B03D0BA693B69FD
:100EC0001343BB61274ABB69D360264B5B68BB6198
:100ED0003B69DB43BA691340BB613B685B6803F461
:100EE0000033002B03D0BA693B691343BB611D4A31
:100EF000BB6953601B4B1B68BB613B69DB43BA6931
:100F00001340BB613B685B6803F48033002B03D064
:100F1000BA693B691343BB61124ABB691360FB6941
:100F20000133FB61FB690F2B7FF690AE00BF00BF62
:100F30002437BD465DF8047B704700BF003802408F
:100F40000038014000000240000402400008024056
:100F5000000C024000100240001402400018024041
:100F6000001C0240003C014080B483B000AF7860B8
:100F70000B467B8013467B707B78002B03D07A88EE
:100F80007B689A6103E07B881A047B689A6100BFE2
:100F90000C37BD465DF8047B704780B485B000AF68
:100FA00078600B467B807B685B69FB607A88FB68B6
:100FB00013401A04FB68D9437B880B401A437B68B3
:100FC0009A6100BF1437BD465DF8047B704700008E
:100FD00080B586B000AF78607B68002B01D101231B
:100FE00067E27B681B6803F00103002B75D0884B18
:100FF0009B6803F00C03042B0CD0854B9B6803F01B
:101000000C03082B12D1824B5B6803F48003B3F509
:10101000800F0BD17E4B1B6803F40033002B5BD099
:101020007B685B68002B57D1012342E27B685B68D9
:10103000B3F5803F06D1764B1B68754A43F4803385
:1010400013601DE07B685B68B3F5A02F0CD1704B7B
:101050001B686F4A43F4802313606D4B1B686C4A16
:1010600043F4803313600BE0694B1B68684A23F438
:1010700080331360664B1B68654A23F4802313603A
:101080007B685B68002B13D0FFF7E4FC386108E055
:10109000FFF7E0FC02463B69D31A642B01D9032316
:1010A00007E25B4B1B6803F40033002BF0D014E025
:1010B000FFF7D0FC386108E0FFF7CCFC02463B6943
:1010C000D31A642B01D90323F3E1514B1B6803F4BA
:1010D0000033002BF0D100E000BF7B681B6803F0F9
:1010E0000203002B63D04A4B9B6803F00C03002BD8
:1010F0000BD0474B9B6803F00C03082B1CD1444BCF
:101100005B6803F48003002B16D1414B1B6803F08E
:101110000203002B05D07B68DB68012B01D0012383
:10112000C7E13B4B1B6823F0F8027B681B69DB00BF
:10113000374913430B603AE07B68DB68002B20D013
:10114000344B01221A60FFF785FC386108E0FFF795
:1011500081FC02463B69D31A022B01D90323A8E183
:101160002B4B1B6803F00203002BF0D0284B1B68AD
:1011700023F0F8027B681B69DB00254913430B60F1
:1011800015E0244B00221A60FFF764FC386108E088
:10119000FFF760FC02463B69D31A022B01D90323F7
:1011A00087E11B4B1B6803F00203002BF0D17B6827
:1011B0001B6803F00803002B36D07B685B69002BAB
:1011C00016D0154B01221A60FFF744FC386108E085
:1011D000FFF740FC02463B69D31A022B01D90323D7
:1011E00067E10B4B5B6F03F00203002BF0D01BE0B9
:1011F000094B00221A60FFF72DFC38610EE0FFF763
:1012000029FC02463B69D31A022B07D9032350E17C
:101210000038024000004742800E4742884B5B6F17
:1012200003F00203002BEAD17B681B6803F0040380
:10123000002B00F097800023FB75814B1B6C03F0A3
:101240008053002B0FD10023BB607D4B1B6C7C4A6D
:1012500043F0805313647A4B1B6C03F08053BB60E4
:10126000BB680123FB75774B1B6803F48073002B6D
:1012700018D1744B1B68734A43F480731360FFF7F3
:10128000E9FB386108E0FFF7E5FB02463B69D31A4A
:10129000022B01D903230CE16A4B1B6803F4807312
:1012A000002BF0D07B689B68012B06D1644B1B6F31
:1012B000634A43F0010313671CE07B689B68052BBE
:1012C0000CD15F4B1B6F5E4A43F0040313675C4B0A
:1012D0001B6F5B4A43F0010313670BE0584B1B6F16
:1012E000574A23F001031367554B1B6F544A23F0F1
:1012F000040313677B689B68002B15D0FFF7AAFBDC
:1013000038610AE0FFF7A6FB02463B69D31A41F2B7
:101310008832934201D90323CBE0494B1B6F03F082
:101320000203002BEED014E0FFF794FB38610AE0D3
:10133000FFF790FB02463B69D31A41F28832934291
:1013400001D90323B5E03E4B1B6F03F00203002BD2
:10135000EED1FB7D012B05D1394B1B6C384A23F0B4
:10136000805313647B689B69002B00F0A180344B91
:101370009B6803F00C03082B5CD07B689B69022BF5
:1013800041D1314B00221A60FFF764FB386108E05D
:10139000FFF760FB02463B69D31A022B01D90323F6
:1013A00087E0274B1B6803F00073002BF0D17B68AC
:1013B000DA697B681B6A1A437B685B6A9B011A4384
:1013C0007B689B6A5B08013B1B041A437B68DB6AF2
:1013D0001B061B4913434B601B4B01221A60FFF78E
:1013E00039FB386108E0FFF735FB02463B69D31A49
:1013F000022B01D903235CE0114B1B6803F000733F
:10140000002BF0D054E0104B00221A60FFF722FBB3
:10141000386108E0FFF71EFB02463B69D31A022B36
:1014200001D9032345E0064B1B6803F00073002B32
:10143000F0D13DE07B689B69012B07D1012338E0A7
:101440000038024000700040600047421B4B5B6860
:10145000FB607B689B69012B28D0FB6803F480024A
:101460007B68DB699A4221D1FB6803F03F027B680D
:101470001B6A9A421AD1FA6847F6C07313407A6819
:10148000526A9201934211D1FB6803F440327B68A7
:101490009B6A5B08013B1B049A4207D1FB6803F07F
:1014A00070627B68DB6A1B069A4201D0012300E070
:1014B000002318461837BD4680BD00BF00380240E3
:1014C00080B584B000AF786039607B68002B01D1B3
:1014D0000123CCE0684B1B6803F007033A689A428B
:1014E0000CD9654B3A68D2B21A70634B1B6803F093
:1014F00007033A689A4201D00123B8E07B681B6871
:1015000003F00203002B20D07B681B6803F0040368
:10151000002B05D0594B9B68584A43F4E053936025
:101520007B681B6803F00803002B05D0534B9B68B6
:10153000524A43F460439360504B9B6823F0F0029F
:101540007B689B684D4913438B607B681B6803F085
:101550000103002B44D07B685B68012B07D1474B0C
:101560001B6803F40033002B19D101237FE07B6853
:101570005B68022B03D07B685B68032B07D13F4B72
:101580001B6803F00073002B09D101236FE03B4B74
:101590001B6803F00203002B01D1012367E0374BE6
:1015A0009B6823F003027B685B68344913438B60BC
:1015B000FFF750FAF8600AE0FFF74CFA0246FB68C2
:1015C000D31A41F28832934201D903234FE02B4BC7
:1015D0009B6803F00C027B685B689B009A42EBD12E
:1015E000254B1B6803F007033A689A420CD2224B42
:1015F0003A68D2B21A70204B1B6803F007033A68AE
:101600009A4201D0012332E07B681B6803F0040397
:10161000002B08D0194B9B6823F4E0527B68DB68F1
:10162000164913438B607B681B6803F00803002B8B
:1016300009D0124B9B6823F460427B681B69DB0076
:101640000E4913438B6000F021F802460B4B9B6858
:101650001B0903F00F030A49CB5C22FA03F3094A82
:101660001360094B1B681846FFF7EEF80023184675
:101670001037BD4680BD00BF003C0240003802402C
:101680003434000800000020040000202DE9B04F91
:1016900094B000AF00237B640023FB6400233B6411
:1016A0000023BB64794B9B6803F00C03082B0DD01F
:1016B000082B00F2E180002B02D0042B03D0DBE0EA
:1016C000734BBB64DBE0734BBB64D8E06F4B5B6870
:1016D00003F03F037B646D4B5B6803F48003002BD6
:1016E00063D06A4B5B689B090022BB63FA63BB6BE8
:1016F000C3F308033B6300237B63D7E90C45224611
:101700002B464FF000004FF00001590141EAD26131
:10171000500102460B462146511A3961294663EBB6
:1017200001037B614FF000024FF00003D7E904ABE7
:1017300059468B01514643EA916351468A0151460D
:10174000B2EB0108594663EB01094FF000024FF07C
:1017500000034FEAC90343EA58734FEAC8029046B0
:101760009946234618EB0303BB602B4649EB030362
:10177000FB604FF000024FF00003D7E90245294615
:101780004B02214643EAD15321464A0210461946EC
:101790007B6C0022BB62FA62D7E90A23FEF718FDD0
:1017A00002460B461346FB6458E0384B5B689B09C6
:1017B000002218461146C0F308033B6200237B62F7
:1017C000D7E9088942464B464FF000004FF0000130
:1017D000590141EAD261500102460B464146B2EB43
:1017E000010A494663EB010B4FF000024FF0000382
:1017F0004FEA8B1343EA9A634FEA8A12B2EB0A0468
:1018000063EB0B054FF000024FF00003EB0043EADF
:101810005473E20014461D464346E3183B604B46B2
:1018200045EB03037B604FF000024FF00003D7E964
:10183000004529468B02214643EA915321468A02FC
:10184000104619467B6C0022BB61FA61D7E906237A
:10185000FEF7BEFC02460B461346FB640B4B5B686F
:101860001B0C03F0030301335B003B64FA6C3B6C1D
:10187000B2FBF3F3BB6402E0054BBB6400BFBB6C7F
:1018800018465037BD46BDE8B08F00BF0038024053
:101890000024F40000127A0080B400AF034B1B68F0
:1018A0001846BD465DF8047B704700BF000000206D
:1018B00080B500AFFFF7F0FF0246054B9B685B0B5E
:1018C00003F007030349CB5C22FA03F3184680BDFB
:1018D000003802404434000880B483B000AF786020
:1018E00039607B680F221A60124B9B6803F0030279
:1018F0007B685A600F4B9B6803F0F0027B689A602C
:101900000C4B9B6803F4E0527B68DA60094B9B68E0
:10191000DB0803F4E0527B681A61074B1B6803F095
:1019200007023B681A6000BF0C37BD465DF8047BB8
:10193000704700BF00380240003C024080B582B0D2
:1019400000AF78607B68002B01D1012341E07B6808
:1019500093F83D30DBB2002B06D17B68002283F880
:101960003C20786800F039F87B68022283F83D203B
:101970007B681A687B6804331946104600F0D8F972
:101980007B68012283F846207B68012283F83E2091
:101990007B68012283F83F207B68012283F8402086
:1019A0007B68012283F841207B68012283F8422072
:1019B0007B68012283F843207B68012283F844205E
:1019C0007B68012283F845207B68012283F83D2053
:1019D000002318460837BD4680BD80B483B000AFF1
:1019E000786000BF0C37BD465DF8047B704700008F
:1019F00080B485B000AF78607B6893F83D30DBB28F
:101A0000012B01D001234EE07B68022283F83D20A8
:101A10007B681B68DA687B681B6842F00102DA6049
:101A20007B681B68234A934222D07B681B68B3F112
:101A3000804F1DD07B681B681F4A934218D07B687B
:101A40001B681E4A934213D07B681B681C4A934252
:101A50000ED07B681B681B4A934209D07B681B68C9
:101A6000194A934204D07B681B68184A934211D1EB
:101A70007B681B689B6803F00703FB60FB68062B11
:101A800010D07B681B681A687B681B6842F00102F3
:101A90001A6007E07B681B681A687B681B6842F065
:101AA00001021A60002318461437BD465DF8047B16
:101AB000704700BF000001400004004000080040E3
:101AC000000C0040000401400040014000180040AC
:101AD00080B582B000AF78607B681B681B6903F03B
:101AE0000203022B22D17B681B68DB6803F0020330
:101AF000022B1BD17B681B686FF002021A617B68A6
:101B000001221A777B681B689B6903F00303002B93
:101B100003D0786800F0EEF805E0786800F0E0F8AF
:101B2000786800F0F1F87B6800221A777B681B6800
:101B30001B6903F00403042B22D17B681B68DB685C
:101B400003F00403042B1BD17B681B686FF00402B5
:101B50001A617B6802221A777B681B689B6903F411
:101B60004073002B03D0786800F0C4F805E0786873
:101B700000F0B6F8786800F0C7F87B6800221A77A2
:101B80007B681B681B6903F00803082B22D17B6864
:101B90001B68DB6803F00803082B1BD17B681B68FC
:101BA0006FF008021A617B6804221A777B681B6851
:101BB000DB6903F00303002B03D0786800F09AF888
:101BC00005E0786800F08CF8786800F09DF87B6894
:101BD00000221A777B681B681B6903F01003102B27
:101BE00022D17B681B68DB6803F01003102B1BD12C
:101BF0007B681B686FF010021A617B6808221A77F5
:101C00007B681B68DB6903F44073002B03D07868A2
:101C100000F070F805E0786800F062F8786800F08D
:101C200073F87B6800221A777B681B681B6903F0D6
:101C30000103012B0ED17B681B68DB6803F00103F5
:101C4000012B07D17B681B686FF001021A6178686D
:101C5000FEF7B6FD7B681B681B6903F08003802BD1
:101C60000ED17B681B68DB6803F08003802B07D1F3
:101C70007B681B686FF080021A61786800F002F9D7
:101C80007B681B681B6903F04003402B0ED17B6807
:101C90001B68DB6803F04003402B07D17B681B689F
:101CA0006FF040021A61786800F038F87B681B68B2
:101CB0001B6903F02003202B0ED17B681B68DB68B7
:101CC00003F02003202B07D17B681B686FF02002F4
:101CD0001A61786800F0CCF800BF0837BD4680BDB7
:101CE00080B483B000AF786000BF0C37BD465DF8AC
:101CF000047B704780B483B000AF786000BF0C37BE
:101D0000BD465DF8047B704780B483B000AF786057
:101D100000BF0C37BD465DF8047B704780B483B0CC
:101D200000AF786000BF0C37BD465DF8047B70479C
:101D300080B485B000AF786039607B681B68FB6059
:101D40007B68404A934213D07B68B3F1804F0FD039
:101D50007B683D4A93420BD07B683C4A934207D054
:101D60007B683B4A934203D07B683A4A934208D14E
:101D7000FB6823F07003FB603B685B68FA68134301
:101D8000FB607B682F4A93422BD07B68B3F1804F76
:101D900027D07B682C4A934223D07B682B4A9342FE
:101DA0001FD07B682A4A93421BD07B68294A934202
:101DB00017D07B68284A934213D07B68274A934206
:101DC0000FD07B68264A93420BD07B68254A93420A
:101DD00007D07B68244A934203D07B68234A93420E
:101DE00008D1FB6823F44073FB603B68DB68FA684A
:101DF0001343FB60FB6823F080023B685B6913437D
:101E0000FB607B68FA681A603B689A687B68DA62F4
:101E10003B681A687B689A627B680A4A934203D0DF
:101E20007B680C4A934203D13B681A697B681A634A
:101E30007B6801225A6100BF1437BD465DF8047B00
:101E4000704700BF0000014000040040000800404F
:101E5000000C0040000401400040014000440140EB
:101E60000048014000180040001C004000200040D5
:101E700080B483B000AF786000BF0C37BD465DF81A
:101E8000047B704780B483B000AF786000BF0C372C
:101E9000BD465DF8047B704780B485B000AF034653
:101EA000FB800023FB60B7F90630842B05D0B7F91F
:101EB0000620FB6813440333FB60FB6818461437A5
:101EC000BD465DF8047B704780B500AF00F0DEFAD8
:101ED0000023184680BDF0B589B004AF7860396042
:101EE0007B685B69002B20D07B689B69002B1CD032
:101EF0007B685C687B681D687B681E697B68B3F9DA
:101F000008301846FFF7C8FF01467B685B697A68AE
:101F100092690292019300913B683246294620461D
:101F200000F0EDF80346FB601CE07B685C687B68B2
:101F30001D687B681B699EB27B68B3F90830184640
:101F4000FFF7AAFF024607F10C03019300923B68DA
:101F500032462946204600F02FF90346012B01D0D6
:101F6000002300E0FB6818461437BD46F0BD80B57D
:101F700084B000AF78607B68FB60FB68002B01D009
:101F8000FB6800E00123184600F04CFA00231846D5
:101F90001037BD4680BD80B483B000AF78607B68E9
:101FA00003F108027B685A607B684FF0FF329A6049
:101FB0007B6803F108027B68DA607B6803F1080242
:101FC0007B681A617B6800221A6000BF0C37BD462F
:101FD0005DF8047B704780B483B000AF78607B68A5
:101FE00000221A6100BF0C37BD465DF8047B7047C4
:101FF00080B485B000AF786039607B685B68FB6057
:102000003B68FA685A60FB689A683B689A60FB68AC
:102010009B683A685A60FB683A689A603B687A68DD
:102020001A617B681B685A1C7B681A6000BF1437F2
:10203000BD465DF8047B704780B485B000AF786022
:1020400039603B681B68BB60BB68B3F1FF3F03D1DD
:102050007B681B69FB600CE07B680833FB6002E077
:10206000FB685B68FB60FB685B681B68BA689A4248
:10207000F6D2FB685A683B685A603B685B683A680E
:102080009A603B68FA689A60FB683A685A603B68F5
:102090007A681A617B681B685A1C7B681A6000BFEB
:1020A0001437BD465DF8047B704780B485B000AF3F
:1020B00078607B681B69FB607B685B687A68926804
:1020C0009A607B689B687A6852685A60FB685B68B4
:1020D0007A689A4203D17B689A68FB685A607B6889
:1020E00000221A61FB681B685A1EFB681A60FB68B5
:1020F0001B6818461437BD465DF8047B704780B5F1
:102100008EB004AFF860B9607A603B607B6B002BE7
:102110000AD14FF0500383F31188BFF36F8FBFF3E1
:102120004F8F3B6200BFFEE7BB6B002B0AD14FF025
:10213000500383F31188BFF36F8FBFF34F8FFB61A1
:1021400000BFFEE754233B613B69542B0AD04FF09C
:10215000500383F31188BFF36F8FBFF34F8FBB61C1
:1021600000BFFEE73B69BB6B002B1ED07B6B002BD7
:102170001BD0BB6B7B627B6A7A6B1A637B6A022221
:1021800083F85120002303937B6A029307F1140321
:1021900001933B6B00933B687A68B968F86800F07C
:1021A00050F8786A00F0D4F801E000237B617B6985
:1021B00018462837BD4680BD80B58CB004AFF860A6
:1021C000B9603B601346FB80FB889B00184600F01B
:1021D000C3FE78617B69002B0ED0542000F0BCFE5A
:1021E000F861FB69002B03D0FB697A691A6305E08B
:1021F000786900F07DFF01E00023FB61FB69002BA3
:1022000017D0FB69002283F85120FA88002303933A
:10221000FB690293FB6A0193BB6A00933B68B96850
:10222000F86800F00EF8F86900F092F80123BB613D
:1022300002E04FF0FF33BB61BB6918462037BD4653
:1022400080BD80B588B000AFF860B9607A603B604F
:102250003B6B1A6B7B6803F18043013B9B0013448B
:10226000BB61BB6923F00703BB61BB6903F00703D4
:10227000002B0AD04FF0500383F31188BFF36F8F08
:10228000BFF34F8F7B6100BFFEE7BB68002B1FD001
:102290000023FB6112E0BA68FB69134419783A6BBA
:1022A000FB69134434330A461A70BA68FB69134455
:1022B0001B78002B06D0FB690133FB61FB690F2BF8
:1022C000E9D900E000BF3B6B002283F8432003E024
:1022D0003B6B002283F83420BB6A062B01D906230E
:1022E000BB623B6BBA6ADA623B6BBA6A5A643B6B9D
:1022F00000229A643B6B04331846FFF76CFE3B6B7D
:1023000018331846FFF767FE3B6B3A6B1A61BB6ADE
:10231000C3F107023B6B9A613B6B3A6B5A623B6BB2
:102320000022DA643B6B002283F850203A68F96897
:10233000B86900F005FC02463B6B1A60FB6A002B93
:1023400002D0FB6A3A6B1A6000BF2037BD4680BDE1
:1023500080B582B000AF786000F01CFD2A4B1B688E
:102360000133294A1360294B1B68002B09D1274AE6
:102370007B681360244B1B68012B10D100F0BCFA62
:102380000DE0234B1B68002B09D1204B1B68DA6A38
:102390007B68DB6A9A4202D81C4A7B6813601D4B3B
:1023A0001B6801331B4A13607B68DB6A01229A4079
:1023B000194B1B681343184A13607B68DA6A13468B
:1023C0009B0013449B00154A1A447B68043319464A
:1023D0001046FFF70DFE00F00DFD0D4B1B68002BA6
:1023E0000ED00A4B1B68DA6A7B68DB6A9A4207D216
:1023F0000B4B4FF080521A60BFF34F8FBFF36F8FBC
:1024000000BF0837BD4680BDDC030020DC02002091
:10241000E8030020F8030020E4030020E00200208D
:1024200004ED00E080B584B000AF78600023FB606D
:102430007B68002B17D0134B1B68002B0AD04FF082
:10244000500383F31188BFF36F8FBFF34F8FBB60CF
:1024500000BFFEE700F07AF80021786800F00AFB80
:1024600000F082F8F860FB68002B07D1064B4FF0B4
:1024700080521A60BFF34F8FBFF36F8F00BF1037CA
:10248000BD4680BD0404002004ED00E080B58AB0A4
:1024900004AF0023BB6000237B603A46391D07F17F
:1024A00008031846FEF712F839687B68BA6802928A
:1024B00001930023009300230A461E491E48FFF79C
:1024C0001EFE03461D4A13601C4B1B68002B02D0E6
:1024D00001237B6101E000237B617B69012B16D125
:1024E0004FF0500383F31188BFF36F8FBFF34F8F0B
:1024F0003B6100BF124B4FF0FF321A60114B0122BB
:102500001A60114B00221A6000F0A2FB0EE07B69FA
:10251000B3F1FF3F0AD14FF0500383F31188BFF3AB
:102520006F8FBFF34F8FFB6000BFFEE700BF183710
:10253000BD4680BD2C340008C928000800040020D6
:10254000FC030020E8030020E003002080B400AF7B
:10255000044B1B680133034A136000BFBD465DF89E
:10256000047B70470404002080B584B000AF0023D2
:10257000FB600023BB60414B1B68002B0AD14FF06E
:10258000500383F31188BFF36F8FBFF34F8F3B600E
:1025900000BFFEE700F0FEFB384B1B68013B374AEB
:1025A0001360364B1B68002B61D1354B1B68002B29
:1025B0005DD02EE0334BDB68DB68FB60FB681833D3
:1025C0001846FFF772FDFB6804331846FFF76DFDF0
:1025D000FB68DB6A01229A402B4B1B6813432A4A93
:1025E0001360FB68DA6A13469B0013449B00274A7A
:1025F0001A44FB68043319461046FFF7F9FCFB68E0
:10260000DA6A234B1B68DB6A9A4202D3214B012210
:102610001A601C4B1B68002BCCD1FB68002B01D02F
:1026200000F008FA1C4B1B687B607B68002B10D005
:1026300000F036F80346002B02D0164B01221A6038
:102640007B68013B7B607B68002BF1D1124B002241
:102650001A60104B1B68002B09D00123BB600F4B85
:102660004FF080521A60BFF34F8FBFF36F8F00F0AF
:10267000C1FBBB6818461037BD4680BD040400206E
:10268000DC0300209C030020E4030020E002002083
:10269000DC020020F0030020EC03002004ED00E049
:1026A00080B586B000AF00237B614E4B1B68002BCA
:1026B00040F08E804C4B1B6801333B614A4A3B69BA
:1026C00013603B69002B20D1484B1B681B68002B13
:1026D0000AD04FF0500383F31188BFF36F8FBFF31D
:1026E0004F8F3B6000BFFEE7404B1B68FB60404BD9
:1026F0001B683E4A13603E4AFB6813603D4B1B68F3
:1027000001333C4A136000F095F93B4B1B683A6972
:102710009A4248D3354B1B681B68002B04D1364BBB
:102720004FF0FF321A603EE0304B1B68DB68DB681D
:10273000BB60BB685B687B603A697B689A4203D286
:102740002D4A7B6813602EE0BB6804331846FFF700
:10275000ACFCBB689B6A002B04D0BB6818331846DE
:10276000FFF7A3FCBB68DB6A01229A40234B1B687E
:102770001343224A1360BB68DA6A13469B00134472
:102780009B001F4A1A44BB68043319461046FFF7E2
:102790002FFCBB68DA6A1B4B1B68DB6A9A42B9D311
:1027A00001237B61B6E7174B1B68DA6A14491346AD
:1027B0009B0013449B000B441B68012B01D9012390
:1027C0007B61114B1B68002B07D001237B6104E068
:1027D0000E4B1B6801330D4A13607B69184618378E
:1027E000BD4680BD04040020E003002094030020C7
:1027F00098030020F4030020FC030020E4030020E1
:10280000E0020020DC020020F0030020EC030020A6
:1028100080B487B000AF274B1B68002B03D0264B3A
:1028200001221A603FE0244B00221A60234B1B68F0
:10283000FB60FB68B3FA83F3FB72FB7AC3F11F03FF
:102840007B611F497A6913469B0013449B000B442C
:102850001B68002B0AD14FF0500383F31188BFF39C
:102860006F8FBFF34F8F7B6000BFFEE77A6913461F
:102870009B0013449B00124A13443B613B695B6815
:102880005A683B695A603B695A683B6908339A4207
:1028900004D13B695B685A683B695A603B695B6875
:1028A000DB68084A136000BF1C37BD465DF8047B37
:1028B000704700BF04040020F0030020E403002060
:1028C000E0020020DC02002080B582B000AF78601A
:1028D00000F052F8064B1B68012BF9D9054B4FF05D
:1028E00080521A60BFF34F8FBFF36F8FF0E700BFC6
:1028F000E002002004ED00E080B582B000AF0023CC
:102900007B600CE07A6813469B0013449B00124ADC
:1029100013441846FFF73FFB7B6801337B607B68FD
:10292000062BEFD90D48FFF736FB0D48FFF733FBB9
:102930000C48FFF730FB0C48FFF72DFB0B48FFF767
:102940002AFB0B4B054A1A600A4B054A1A6000BF66
:102950000837BD4680BD00BFE00200206C030020A8
:10296000800300209C030020B0030020C803002047
:10297000940300209803002080B582B000AF19E0D6
:1029800000F008FA104BDB68DB687B607B6804337F
:102990001846FFF78AFB0D4B1B68013B0B4A13607F
:1029A0000B4B1B68013B0A4A136000F023FA78685E
:1029B00000F010F8064B1B68002BE1D100BF00BFF0
:1029C0000837BD4680BD00BFB0030020DC030020F7
:1029D000C403002080B584B000AF78607B6893F8B2
:1029E0005130002B08D17B681B6B184600F080FB30
:1029F000786800F07DFB18E07B6893F85130012B7C
:102A000003D1786800F074FB0FE07B6893F85130D5
:102A1000022B0AD04FF0500383F31188BFF36F8F5E
:102A2000BFF34F8FFB6000BFFEE700BF1037BD460E
:102A300080BD000080B483B000AF0C4B1B681B68E6
:102A4000002B04D10A4B4FF0FF321A6008E0074B0D
:102A50001B68DB68DB687B607B685B68044A13602B
:102A600000BF0C37BD465DF8047B7047940300201F
:102A7000FC03002080B584B000AF78603960294B3A
:102A80001B68FB60284B1B6804331846FFF70DFBDF
:102A90000346002B0BD1244B1B68DB6A012202FA90
:102AA00003F3DA43214B1B681340204A13607B6811
:102AB000B3F1FF3F0AD13B68002B07D01A4B1B68CC
:102AC000043319461A48FFF793FA26E0FA687B6840
:102AD0001344BB60144B1B68BA685A60BA68FB6841
:102AE0009A4209D2134B1A680F4B1B6804331946DC
:102AF0001046FFF7A1FA10E00F4B1A680A4B1B684B
:102B0000043319461046FFF797FA0C4B1B68BA6856
:102B10009A4202D2094ABB68136000BF1037BD4613
:102B200080BD00BFE0030020DC020020E4030020A1
:102B3000C80300209803002094030020FC03002019
:102B400080B485B000AFF860B9607A60FB68043B80
:102B5000FB60FB684FF080721A60FB68043BFB600F
:102B6000BB6823F00102FB681A60FB68043BFB6052
:102B70000C4AFB681A60FB68143BFB607A68FB68D0
:102B80001A60FB68043BFB60FB686FF002021A608E
:102B9000FB68203BFB60FB6818461437BD465DF8B8
:102BA000047B7047A92B000880B485B000AF0023D8
:102BB0007B60124B1B68B3F1FF3F0AD04FF050030C
:102BC00083F31188BFF36F8FBFF34F8FFB6000BF9C
:102BD000FEE74FF0500383F31188BFF36F8FBFF30D
:102BE0004F8FBB6000BF00BF7B68002BFCD000BFD5
:102BF00000BF1437BD465DF8047B70470C00002011
:102C0000074B19680868B0E8F04F80F30988BFF3F4
:102C10006F8F4FF0000080F311887047AFF3008092
:102C2000DC02002000BF00BF08480068006880F395
:102C300008884FF0000080F3148862B661B6BFF3D5
:102C40004F8FBFF36F8F00DF00BF00BF08ED00E0C4
:102C500080B586B000AF464B1B68464A93420AD106
:102C60004FF0500383F31188BFF36F8FBFF34F8F83
:102C70003B6100BFFEE73E4B1B683F4A93420AD1CF
:102C80004FF0500383F31188BFF36F8FBFF34F8F63
:102C9000FB6000BFFEE7394B7B617B691B78DBB2D1
:102CA0007B607B69FF221A707B691B78DBB2FB704B
:102CB000FB78DBB203F05003DAB2314B1A70314BC0
:102CC00007221A6009E02F4B1B68013B2D4A136055
:102CD000FB78DBB25B00DBB2FB70FB78DBB203F0AE
:102CE0008003802BEFD0274B1B68C3F10703042B15
:102CF0000AD04FF0500383F31188BFF36F8FBFF3F7
:102D00004F8FBB6000BFFEE71E4B1B681B021D4AB6
:102D100013601C4B1B6803F4E0631A4A13607B6862
:102D2000DAB27B691A70184B1B68174A43F47003B8
:102D30001360154B1B68144A43F07043136000F096
:102D4000DDF8124B00221A6000F0FCF8104B1B68F3
:102D50000F4A43F040431360FFF766FFFFF758FD4B
:102D6000FFF722FF002318461837BD4680BD00BF7D
:102D700000ED00E071C20F4170C20F4100E400E0BD
:102D8000080400200C04002020ED00E00C000020CE
:102D900034EF00E080B483B000AF4FF0500383F312
:102DA0001188BFF36F8FBFF34F8F7B6000BF0F4B56
:102DB0001B6801330D4A13600C4B1B68012B0FD1AC
:102DC0000B4B1B68DBB2002B0AD04FF0500383F390
:102DD0001188BFF36F8FBFF34F8F3B6000BFFEE7DB
:102DE00000BF0C37BD465DF8047B70470C00002027
:102DF00004ED00E080B483B000AF124B1B68002BE1
:102E00000AD14FF0500383F31188BFF36F8FBFF3E4
:102E10004F8F7B6000BFFEE70A4B1B68013B094AEE
:102E20001360084B1B68002B05D100233B603B68F7
:102E300083F3118800BF00BF0C37BD465DF8047BEB
:102E4000704700BF0C0000200000000000000000E0
:102E5000EFF30980BFF36F8F154B1A681EF0100F48
:102E600008BF20ED108A20E9F04F10602DE909001D
:102E70004FF0500080F31188BFF34F8FBFF36F8F77
:102E8000FFF7C6FC4FF0000080F3118809BC1968F9
:102E90000868B0E8F04F1EF0100F08BFB0EC108AC1
:102EA00080F30988BFF36F8F704700BFAFF30080D6
:102EB000DC02002000BF00BF80B582B000AF4FF041
:102EC000500383F31188BFF36F8FBFF34F8F7B6085
:102ED00000BFFFF7E5FB0346002B03D0064B4FF086
:102EE00080521A6000233B603B6883F3118800BF67
:102EF00000BF0837BD4680BD04ED00E080B400AFE0
:102F00000B4B00221A600B4B00221A600A4B1B6805
:102F10000A4AA2FB03239B09094A013B1360044BA5
:102F200007221A6000BFBD465DF8047B704700BFF2
:102F300010E000E018E000E000000020D34D621037
:102F400014E000E0DFF80C00016841F4700101605A
:102F5000704700BF88ED00E080B58AB000AF7860B0
:102F60000023FB61FFF7F2FA5B4B1B68002B01D1DA
:102F700000F020F9594B1A687B681340002B40F091
:102F800093807B68002B1DD008227B6813447B60F4
:102F90007B6803F00703002B14D07B6823F0070342
:102FA00008337B607B6803F00703002B0AD04FF0E7
:102FB000500383F31188BFF36F8FBFF34F8F7B6193
:102FC00000BFFEE77B68002B6ED0454B1B687A681C
:102FD0009A4269D8434B3B62424B1B687B6204E0D8
:102FE0007B6A3B627B6A1B687B627B6A5B687A6890
:102FF0009A4203D97B6A1B68002BF1D1364B1B68C0
:103000007A6A9A4250D03B6A1B6808221344FB61DB
:103010007B6A1A683B6A1A607B6A5A687B68D21AB4
:1030200008235B009A421FD97A6A7B681344BB610C
:10303000BB6903F00703002B0AD04FF0500383F362
:103040001188BFF36F8FBFF34F8F3B6100BFFEE767
:103050007B6A5A687B68D21ABB695A607B6A7A6855
:103060005A60B86900F008F91D4B1A687B6A5B6802
:10307000D31A1B4A13601A4B1A681B4B1B689A42DF
:1030800003D2174B1B68184A13607B6A5A68134BAC
:103090001B681A437B6A5A607B6A00221A60134BD2
:1030A0001B680133114A1360FFF75EFAFB6903F0F6
:1030B0000703002B0AD04FF0500383F31188BFF3AE
:1030C0006F8FBFF34F8FFB6000BFFEE7FB691846B1
:1030D0002837BD4680BD00BF184000202C4000208E
:1030E0001C400020104000202040002024400020F0
:1030F00080B586B000AF78607B687B617B68002B11
:103100004DD008235B427A6913447B617B693B6144
:103110003B695A68244B1B681340002B0AD14FF0BF
:10312000500383F31188BFF36F8FBFF34F8FFB60A2
:1031300000BFFEE73B691B68002B0AD04FF050032D
:1031400083F31188BFF36F8FBFF34F8FBB6000BF56
:10315000FEE73B695A68144B1B681340002B1ED0D6
:103160003B691B68002B1AD13B695A680E4B1B68E0
:10317000DB431A403B695A60FFF7E8F93B695A683C
:103180000A4B1B681344094A1360386900F074F84D
:10319000074B1B680133064A1360FFF7E5F900BFD0
:1031A0001837BD4680BD00BF2C4000201C400020C9
:1031B0002840002080B485B000AF4FF47053BB604E
:1031C000274BFB60FB6803F00703002B0CD0FB6868
:1031D0000733FB60FB6823F00703FB60BA68FB68FA
:1031E000D31A1F4A1344BB60FB687B601D4A7B688F
:1031F00013601C4B00225A607B68BA681344FB6062
:103200000822FB689B1AFB60FB6823F00703FB6046
:10321000FB68154A1360144B1B6800225A60124B5E
:103220001B6800221A607B683B603B68FA68D21A10
:103230003B685A600C4B1A683B681A603B685B68D5
:103240000A4A13603B685B68094A1360094B4FF0F8
:1032500000421A6000BF1437BD465DF8047B70471A
:1032600010040020104000201840002020400020C2
:103270001C4000202C40002080B485B000AF786056
:10328000284BFB6002E0FB681B68FB60FB681B6867
:103290007A689A42F7D8FB68BB60FB685B68BA68DB
:1032A00013447A689A4208D1FB685A687B685B6865
:1032B0001A44FB685A60FB687B607B68BB607B6874
:1032C0005B68BA681A44FB681B689A4218D1FB68AD
:1032D0001A68154B1B689A420DD07B685A68FB68C8
:1032E0001B685B681A447B685A60FB681B681A6835
:1032F0007B681A6008E00C4B1A687B681A6003E070
:10330000FB681A687B681A60FA687B689A4202D088
:10331000FB687A681A6000BF1437BD465DF8047B0D
:10332000704700BF104000201840002002440346B0
:10333000934200D1704703F8011BF9E770B50D4DBA
:103340000D4C641BA4100026A64209D10B4D0C4C59
:1033500000F018F8641BA4100026A64205D170BD29
:1033600055F8043B98470136EEE755F8043B98477B
:103370000136F2E75434000854340008543400088D
:1033800058340008F8B500BFF8BC08BC9E4670472A
:0C339000F8B500BFF8BC08BC9E467047B2
:10339C007461736B320000009C3300084107000815
:1033AC000000000000000000800000000000000091
:1033BC00000000007461736B31000000C033000822
:1033CC006107000800000000000000008000000001
:1033DC0000000000000000005461736B30330000EB
:1033EC00E433000881070008000000000000000022
:1033FC008000000000000000000000005461736BAE
:10340C003034000008340008A1070008FDFF00005C
:10341C000000000080000000000000000000000020
:10342C0049444C4500000000000000000000000072
:10343C00010203040607080900000000010203044E
:08344C00B4CDFF7F0100000078
:04345400B5010008B6
:0434580091010008D6
:10345C000024F4001000000001000000AAAAAAAA8F
:040000050800099551
:00000001FF
